:1008D6003C473EBBB6D3ADCAB9D3C3003C473EC4C2
:1008E600E3BAC3A3ACD6F7C8CB00310D0A00320D6C
:1008F6000A00330D0A00340D0A003C473EB1F9CF19
:10090600E4D2D1B4F2BFAA0D0A003C473EB1F9CFFA
:10091600E4D2D1B9D8B1D50D0A003C473EBFD5CCFB
:10092600F5D2D1B4F2BFAA0D0A003C473EBFD5CCE2
:10093600F5D2D1B9D8B1D50D0A003C473ED2D1C8BF
:10094600ABB2BFB4F2BFAA0D0A003C473ED2D1C833
:10095600ABB2BFB9D8B1D50D0A00350D0A00360DB8
:070966000A00370D0A000032
:06000E000157000156003D
:100A8C00E4F5467592FFF591C294C295C296C29751
:100A9C00120D82120CE6120C39120D12E47857F674
:100AAC007BFF7A0879D6120D397857E61460FA2450
:100ABC00F1601824DF60F22431702078577601122F
:100ACC000B4CEF70E47857763180DE1200067859C3
:100ADC00EFF6120440E47857F680CEE47857F680AF
:010AEC00C841
:100D8200B2C2120DACB2C2120DACB2C2120DACB2F2
:0C0D9200C2120DACB2C2120DACB2C222F3
:100CE6007580FFE4F59075A0FF75B0FF75C0FF53E2
:100CF6008E7F438901F58A758C28C28DD28CD2A944
:0C0D0600C2C3D289D2A8D2AF75C13D2271
:0A0DB90000007F057E49DEFEDFFC2E
:010DC300220D
:080D5E008F518E508D4F8C4E19
:100D6600E4F552F553F554F555784E74FF1205DF48
:0B0D7600EC4D4E4F6005120DB980EEF1
:010D8100224F
:0C0DAC007F117ED07D1BDDFEDEFCDFFA37
:010DB8002218
:03000300020C7A72
:100C7A00C0E0C0F0C083C082C0D075D000C000C040
:100C8A0001C002C003C004C005C006C00712079B0A
:100C9A00D007D006D005D004D003D002D001D000AE
:0B0CAA00D0D0D082D083D0F0D0E03258
:100440008F47EF700F7556017BFF7A0879E2120D26
:1004500039C2C222E556640160030205B5F556D2E1
:10046000C2E5471205FD04FD01050D02051D040549
:100470002D14053C15054616055017055A18056438
:100480001905741A05841B058C1C05941D059C1EFA
:1004900005A41F05AC2005AC2105AC2205AC230545
:1004A000AC2405AC2505AC2605AC2705AC2805AC6D
:1004B0002905AC2A05AC2B05AC2C05AC2D05AC2EC2
:1004C00005AC2F05AC3005AC3105AC3205AC3305BD
:1004D000AC3405AC3505AC3605AC3705AC3805ACED
:1004E0003905AC3A05AC3B05AC3C05AC3D05AC3E32
:1004F00005AC3F05AC4005AC41000005B57F0112DD
:100500000D9ED2977BFF7A0879F00205B27F021226
:100510000D9EC2977BFF7A0879F40205B27F031221
:100520000D9ED2967BFF7A0879F80205B27F0412FD
:100530000D9EC2967BFF7A0879FC8076D2957BFF70
:100540007A097900806CC2957BFF7A097910806204
:10055000D2947BFF7A0979208058C2947BFF7A0974
:100560007930804ED297D296D295D2947BFF7A0979
:100570007940803EC297C296C295C2947BFF7A09A9
:100580007950802E7BFF7A0879F880267BFF7A08E5
:1005900079FC801E7BFF7A09796080167BFF7A09DF
:1005A0007964800E7BFF7A09796880067BFF7A097F
:0605B000796C120D3922E6
:03000B00020DDA09
:0A0DDA00758A00758C2875C13D3242
:100026007869616F206A69650000000000000000C1
:10003600000000006B61692064656E6700000000C7
:1000460000000000000000006775616E2064656EA8
:100056006700000000000000000000006461206BE3
:100066006169206469616E207368690000000000A0
:100076006775616E206269206469616E20736869C4
:10008600000000006461206B61692062696E672070
:100096007869616E670000006775616E206269208D
:1000A60062696E67207869616E6700006461206B23
:1000B6006169206B6F6E67207469616F00000000D4
:1000C6006775616E206269206B6F6E672074696167
:1000D6006F0000007175616E206275206461206B8F
:1000E60061690000000000007175616E2062752074
:1000F6006775616E20626900000000006461206B14
:1001060061692079696E207975650000000000003C
:100116006775616E2062692079696E207975650060
:100126000000000074692067616F206C69616E676A
:1001360020647500000000006A69616E67206469CA
:10014600206C69616E672064750000000000000085
:100156000000000000000000000000000000000099
:100166000000000000000000000000000000000089
:100176000000000000000000000000000000000079
:100186000000000000000000000000000000000069
:100406000000000000000000000102041415161789
:1004160018191A1B1C1D1E1F2021222324252627DE
:1004260028292A2B2C2D2E2F3031323334353637CE
:0A04360038393A3B3C3D3E3F40415F
:100C3900D2B57F057E007D007C00120D5EC2B57FB6
:100C4900057E007D007C00120D5ED2B57F057E0019
:100C59007D007C00120D5EC2A17F057E007D007CB7
:100C690000120D5ED2A17F057E007D007C00020D81
:010C79005E1C
:10083A007F06120DCF7D357F17120DC47F0A7E0009
:10084A007D007C00120D5E7F06120DCF7D037F892D
:10085A00120DC47F057E007D007C00120D5E7D4373
:10086A007FCF120DC47F057E007D007C00120D5ED5
:10087A007D027FCB120DC47D0A7F11120DC4E4FDE7
:10088A007F1E120DC47D3F7F19120DC47D487F1B48
:10089A00120DC47D1F7F1D120DC47F0A7E007D00CC
:1008AA007C00120D5E7D047FCD120DC47F057E0093
:1008BA007D007C00120D5EE4FD7FB9120DC47D4FF0
:0C08CA007FCF120DC47DFF7F6F020DC4B4
:100AED0012083AE4FD7FBD120DC47D487F17120D2B
:100AFD00C47F0A7E007D007C00120D5E7D807F3CF0
:100B0D00120DC47D077F3E120DC47DFF7F38120D7F
:100B1D00C47D077F3A120DC4E4FD7F40120DC47DE4
:100B2D00087F42120DC4E4FD7F44120DC47D087F81
:0F0B3D0046120DC47F017E007D007C00020D5E1C
:10079B00E4F545C2A87F2B120DCF7858A607E4FDD0
:1007AB007F29120DC4E4FD7F02120DC47858E63088
:1007BB00E4377FB2120DCFEF6421702D7FBF120D86
:1007CB00CFEF643570237FBA120DCF8F457E00D3E8
:1007DB00EF9400748094804010D3EF940474809451
:1007EB0080500678577610800478577611E4FD7F99
:1007FB002B120DC4E4FD7F1C120DC4E4FD7F2912E6
:10080B000DC4E4FD7F02120DC4E4FD7F2B120DC459
:10081B00E4FD7FBA120DC4E4FD7FBC120DC47D0153
:0E082B007F08120DC4E4FD7F08120DC4D2A890
:01083900229C
:100B4C00E4F547F548F547C3E54794057480948070
:100B5C00504012001C7F327E007D007C00120D5E26
:100B6C001206F1EF700280117F0A7E007D007C007E
:100B7C00120D5E12096DEF7010120C397F327E006F
:100B8C007D007C00120D5E800575480180040547D0
:040B9C0080B5AF4829
:010BA0002232
:100CB500E4F54DF54CC3E54C940A74809480501EC0
:100CC5007FB2120DCFEF64217005754D01800F7F46
:100CD5000A7E007D007C00120D5E054C80D7AF4D6D
:010CE50022EC
:03001C00020AEDE8
:10096D00C2A87D437F35120DC47D097F1C120DC4B5
:10097D007D207FBD120DC47D017F08120DC47F0146
:10098D007E007D007C00120D5EE4FD7F08120DC41B
:10099D007F017E007D007C00120D5E120CB5EF70A4
:1009AD0002FF227D0B7F1C120DC47DFF7FB2120D45
:1009BD00C47F017E007D007C00120D5E7D067F37B9
:1009CD00120DC47F017E007D007C00120D5E7D0640
:1009DD007F37120DC47F057E007D007C00120D5EF9
:1009ED007D107F29120DC4E4FD7FBD120DC4D2A868
:0309FD007F012255
:1006F100754A01E4F549C3E5499432748094804018
:1007010003020798120CB5EF7005F54A020798E548
:100711004990040E93FD7FC1120DC4E4FD7FC31205
:100721000DC47D047F08120DC47F017E007D007C15
:1007310000120D5EE4FD7F08120DC47F017E007D75
:10074100007C00120D5EE4F54BC3E54B94147480FC
:100751009480502975F014E549A42426F582E5F02A
:100761003400F583E582254BF582E43583F583E496
:1007710093FD60097F05120DC4054B80CCAD4B7F05
:10078100B9120DC47DFF7FB2120DC47D047F3712F3
:090791000DC405490206F7AF4A48
:01079A00223C
:050006007FC5020DCFD3
:0B0DC400908100EFF0908000EDF02225
:0B0DCF00908100EFF0908000E0FF2218
:07001400021125800110001C
:100D1200759850758920AE11AF12AB07AA06E4F997
:100D2200F8FF7EE1FDFC120BF51205CF8F8B8F8D44
:070D3200D28ED2ACD2AF2239
:0E0D9E00C2ACC2998F993099FDC299D2AC2295
:100D39008B488A49894AAB48AA49A94A1205B6602B
:100D490013054AE54A7002054914F91205B6FF125E
:050D59000D9E80E22266
:03002300020BA12C
:100BA100C0E0C0D075D008309845C29874132510A4
:100BB100F8A6990510C3E510943174809480400320
:100BC100751000C3E5109403748094804021741360
:100BD1002510F8E664F8701774122510F8E664F829
:100BE100700D74112510F8E664F8700375C760D0B4
:040BF100D0D0E0324E
:03000000020A00F1
:0C0A0000787FE4F6D8FD758159020A47A2
:1005B600BB010689828A83E0225002E722BBFE0243
:0905C600E32289828A83E4932276
:100BF500C2D5E830E70FB2D5E4C39BFBE49AFAE42B
:100C050099F9E498F8EC30E717B2D5120C2B1206D7
:100C15005FE4C39BFBE49AFAE499F9E498F880034E
:100C250012065F30D50DE4C39FFFE49EFEE49DFDF3
:040C3500E49CFC221D
:0E05CF00C3E49FFFE49EFEE49DFDE49CFC223D
:1005DD007401FF3395E0FEFDFC080808E6CF2FF609
:1005ED0018E6CE3EF618E6CD3DF618E6CC3CF622E2
:1005FD00D083D082F8E4937012740193700DA3A38D
:10060D0093F8740193F5828883E4737402936860A0
:06061D00EFA3A3A380DFA0
:100A0C00020A8CE493A3F8E493A34003F68001F26A
:100A1C0008DFF48029E493A3F85407240CC8C333EB
:100A2C00C4540F4420C8834004F456800146F6DFBA
:100A3C00E4800B010204081020408090000EE47E3C
:100A4C00019360BCA3FF543F30E509541FFEE493AF
:100A5C00A360010ECF54C025E060A840B8E493A376
:100A6C00FAE493A3F8E493A3C8C582C8CAC583CAA1
:100A7C00F0A3C8C582C8CAC583CADFE9DEE780BE59
:01001B0000E4
:1006230075F008758200EF2FFFEE33FECD33CDCC8E
:1006330033CCC58233C5829BED9AEC99E582984011
:100643000CF582EE9BFEED9AFDEC99FC0FD5F0D6EE
:10065300E4CEFBE4CDFAE4CCF9A88222B800C1B918
:100663000059BA002DEC8BF084CFCECDFCE5F0CB56
:10067300F97818EF2FFFEE33FEED33FDEC33FCEB8F
:1006830033FB10D703994004EB99FB0FD8E5E4F94A
:10069300FA227818EF2FFFEE33FEED33FDEC33FC37
:1006A300C933C910D7059BE99A4007EC9BFCE99A2B
:1006B300F90FD8E0E4C9FAE4CCFB2275F010EF2F70
:1006C300FFEE33FEED33FDCC33CCC833C810D70770
:1006D3009BEC9AE899400AED9BFDEC9AFCE899F8AB
:0E06E3000FD5F0DAE4CDFBE4CCFAE4C8F9223E
:00000001FF
